:020000040800F2
:1000000028070020CD010008C7130008751200085A
:10001000C51300083F030008F716000800000000A1
:10002000000000000000000000000000CB130008EA
:100030004103000800000000C9130008CD130008A8
:10004000E7010008E7010008E7010008E7010008F0
:10005000E7010008E7010008E7010008E7010008E0
:10006000E7010008E7010008E7010008E7010008D0
:10007000E7010008E7010008E7010008E7010008C0
:10008000E7010008E7010008E7010008E7010008B0
:10009000E7010008E7010008E7010008E7010008A0
:1000A0003114000855140008491400083D140008D4
:1000B000E7010008E7010008E7010008E701000880
:1000C000E7010008E7010008E7010008E701000870
:1000D000E7010008E7010008E7010008E701000860
:1000E000E7010008E7010008E7010008E701000850
:1000F000E7010008E7010008E7010008E701000840
:10010000E7010008E7010008E7010008E70100082F
:10011000E7010008E7010008E7010008E70100081F
:10012000E7010008E7010008E7010008E70100080F
:1001300000F002F800F03AF80AA090E8000C8244BF
:100140008344AAF10107DA4501D100F02FF8AFF29C
:10015000090EBAE80F0013F0010F18BFFB1A43F0A5
:1001600001031847F416000014170000103A24BFCA
:1001700078C878C1FAD8520724BF30C830C144BF0C
:1001800004680C607047000000230024002500264E
:10019000103A28BF78C1FBD8520728BF30C148BFEA
:1001A0000B6070471FB51FBD10B510BD00F08AF879
:1001B0001146FFF7F7FF01F0AFFA00F0A8F803B41B
:1001C000FFF7F2FF03BC00F0AFF8000009488047DA
:1001D00009480047FEE7FEE7FEE7FEE7FEE7FEE729
:1001E000FEE7FEE7FEE7FEE704480549054A064B41
:1001F000704700002F14000831010008280100207A
:1002000028070020280300202803002010B5203AEA
:10021000C0F00B80B1E81850203AA0E81850B1E8BF
:100220001850A0E81850BFF4F5AF5FEA027C24BF75
:10023000B1E81850A0E8185044BF18C918C0BDE86C
:1002400010405FEA827C24BF51F8043B40F8043B35
:1002500008BF7047D20728BF31F8023B48BF11F8EA
:10026000012B28BF20F8023B48BF00F8012B704744
:100270004FF0000200B5134694469646203922BF3F
:10028000A0E80C50A0E80C50B1F12001BFF4F7AF8A
:10029000090728BFA0E80C5048BF0CC05DF804EB6C
:1002A000890028BF40F8042B08BF704748BF20F8DA
:1002B000022B11F0804F18BF00F8012B70477047D8
:1002C00070477047754600F02BF8AE46050069464A
:1002D000534620F00700854618B020B5FFF784FF8D
:1002E000BDE820404FF000064FF000074FF0000837
:1002F0004FF0000B21F00701AC46ACE8C009ACE8B8
:10030000C009ACE8C009ACE8C0098D46704710B51B
:100310000446AFF300802046BDE81040FFF74FBF12
:1003200000487047C800002001491820ABBEFEE716
:10033000260002007047002800DC40427047FEE7BC
:10034000704772B6FEE700002DE9F84FDFF8C8915C
:10035000002409F1040A0AF1040B23460F270BF1CC
:10036000040ED1E00125A54006EA0502AA4276D195
:10037000DFF8A8C14E68A6EB0C0866452BD00DDC53
:10038000032E34D005DC36B3012E19D0022E2FD126
:100390001BE0112E16D0122E2AD119E0B8F5881FB5
:1003A00019D006DCB8F5803F15D0B8F5801F1FD1F5
:1003B00011E0B8F5001F0ED0B8F5041F18D10AE0FF
:1003C000CB6815E0CB681B1D12E0CB6808330FE04B
:1003D000CB680C330CE08B682BB1012B4FF008037A
:1003E00003D0456104E0042302E0056100E000233E
:1003F000FF2A01D8064601E000F104064FEA840511
:1004000001D9A5F12005D6F8008007FA05FC28EAF5
:100410000C0803FA05F548EA0508C6F800804D689F
:10042000ED0070D53E4DAE6946F00106AE61AD6996
:1004300024F0030605F0010500953A4D06EB050C86
:10044000DCF80850A607360F07FA06F825EA080573
:10045000DFF8D480404503D14FF0000825E052E09A
:10046000DFF8C880404502D14FF001081DE0DFF8F9
:10047000C080404502D14FF0020816E0DFF8B4809A
:10048000404502D14FF003080FE0DFF8AC80404553
:1004900002D14FF0040808E0DFF8A080404502D107
:1004A0004FF0050801E04FF0060808FA06F848EAA0
:1004B0000508CCF808804D68D9F80060ED034D467A
:1004C00001D5164300E096432E604D68DAF80060CF
:1004D000AD03554601D5164300E096432E604D68A6
:1004E000DBF80060ED025D4601D5164300E096435F
:1004F0002E604D68DEF80060AD02754601D51643EA
:1005000000E096432E60641C0A681646E2407FF4C1
:1005100029AFBDE8F88F0000000401400000111071
:10052000001002400000014000080140000C0140A2
:10053000001001400014014000180140001C01405F
:100540000AB1016170470904FBE7000001488068B7
:1005500070470000040000200248816802781144BE
:100560008160704704000020074810B5016841F021
:1005700010010160032000F075F80F2000F006F86C
:1005800000F024F8002010BD0020024070B50D4D91
:1005900004464FF47A712878B1FBF0F00A490968F3
:1005A000B1FBF0F000F0CCFA48B9102C07D20022D1
:1005B0002146501E00F036F800206C6070BD01200E
:1005C00070BD000004000020100000200C4808B599
:1005D000816941F001018161816901F001010091AE
:1005E000C16941F08051C161C06900F08050009044
:1005F0000448416821F0E06141F00071416008BDAC
:100600000010024000000140002809DB00F01F023A
:10061000012191404009800000F1E020C0F8001164
:1006200070470000F0B40E4B1B680C46C3F3022366
:10063000C3F10705042D00D90425191D072901D28E
:10064000002300E0DB1E012606FA05F1491E2140C9
:1006500099409E40761E16403143F0BC01F04CB8E4
:100660000CED00E0064900F0070208684FF6FF03B2
:10067000184040EA0220034A104308607047000017
:100680000CED00E00000FA052DE9F0470F460500EB
:1006900061D0434E306800F00700B84209D230689C
:1006A00020F0070038433060306800F00700B8429F
:1006B00051D128683B4C810712D5400703D56068AB
:1006C00040F4E06060602878000703D5606840F47B
:1006D000605060606068A96820F0F00008436060C6
:1006E0002878C00728D06868012810D0216802281F
:1006F00010D0890700292EDA616821F00301014337
:100700006160FFF723FF804641F288390DE02168E0
:100710008903EFE78901EDE7FFF718FFA0EB080178
:10072000494502D90320BDE8F0876068696800F098
:100730000C00B0EB810FEFD1306800F00700B84239
:100740000BD9306820F0070038433060306800F083
:100750000700B84201D00120E5E72878400705D519
:100760006068E96820F4E06008436060287800076A
:1007700006D56068296920F4605040EAC1006060D5
:1007800000F018F86168084AC1F30311515CC840D1
:100790000649086006480068FFF7F8FE0020C2E737
:1007A00000200240001002404818000810000020FD
:1007B0000800002012A185B00FC98DE80F0014A019
:1007C000144A006804905168134801F00C03042B8C
:1007D00010D0082B0ED1C1F38343C9031DF80300C9
:1007E0000AD5516804AAC1F34041515C0A4A5043FA
:1007F000B0FBF1F005B0704708494843FAE7000044
:1008000002030405060708090A0B0C0D0E0F101051
:10081000010200000010024000127A0000093D00B1
:100820002DE9F84F040070D02078C04DC00749D0A2
:100830006868C0F38100012807D06868C0F38100B0
:10084000022809D16868C00306D52868800339D515
:1008500060680028E7D035E06068B0F5803F0BD0D5
:1008600010B1B0F5A02F11D0286820F48030286096
:10087000286820F4802002E0286840F48030286056
:10088000606890B1FFF762FE06460AE0286840F40F
:1008900080202860F0E700BFFFF758FE801B642827
:1008A00073D828688003F7D50CE0FFF74FFE0646A3
:1008B00005E000BFFFF74AFE801B6428F0D82868D7
:1008C0008003F7D420789A4E80074FF001094FF04B
:1008D000000839D5686810F00C0F07D06868C0F3BD
:1008E0008100022809D16868C00306D428688007FF
:1008F00014D52069012808D110E02069B0B1C6F8EC
:100900000090FFF723FE074605E00AE1FFF71EFE11
:10091000C01B0228C4D828688007F7D528686169F9
:1009200020F0F80040EAC10028600DE0C6F8008021
:10093000FFF70CFE074604E0FFF708FEC01B022885
:1009400023D828688007F7D4207800072CD5794869
:10095000A169D9B1C0F80090FFF7F8FD074604E09F
:10096000FFF7F4FDC01B02280FD8686A8007F7D58F
:1009700071484FF4FA510068B0FBF1F0009000BFED
:100980000098411E0091FAD20EE080E0C0F800808D
:10099000FFF7DCFD074604E0FFF7D8FDC01B022887
:1009A00075D8686A8007F7D42078400760D5E86971
:1009B0000027C00008D4E86940F08050E861E86989
:1009C000012700F0805000905C480168C90513D4ED
:1009D0000168834641F480710160FFF7B7FD8246EC
:1009E00006E000BFFFF7B2FDA0EB0A0064284ED876
:1009F000DBF80000C005F5D5E06801280AD008B191
:100A0000052813D0286A20F001002862286A20F007
:100A1000040002E0286A40F001002862E06841F228
:100A2000883B98B1FFF792FD82460BE0286A40F0C0
:100A300004002862EEE700BFFFF788FDA0EB0A0183
:100A400059455AD8286A8007F6D50CE0FFF77EFD95
:100A5000824605E0FFF77AFDA0EB0A0159454CD824
:100A6000286A8007F6D41FB1E86920F08050E86159
:100A7000E06988B36968C1F38101022944D0022882
:100A8000C6F8608004D0FFF761FD044638E034E02A
:100A9000FFF75CFD074604E0FFF758FDC01B022886
:100AA0002BD828688001F7D4206AB0F5803F05D1A3
:100AB0006868A16820F4003008436860D4E9080140
:100AC0000843696821F4741108436860C6F86090AF
:100AD000FFF73CFD044606E025E000BFFFF736FDCA
:100AE000001B022809D828688001F7D51BE000BF49
:100AF000FFF72CFD001B022802D90320BDE8F88F68
:100B000028688001F4D40EE00128F7D06868226AD2
:100B100000F48031914204D1616A00F4701088427F
:100B200001D00120EAE70020E8E7000000100240C1
:100B30000000424280044242100000200070004049
:100B400010B5401EB0F1807F01D3012010BD4FF0E1
:100B5000E02460610F21601700F0CEFD0020A0614D
:100B600007202061002010BD7047704710B590F835
:100B70003C20012A22D0012280F83C20CA688C68DF
:100B800022F4407222434C6822F4806222430C68B3
:100B900022F4006222430C6922F4805222434C6901
:100BA00022F400522243C969002322F480420A43FE
:100BB00001684A6480F83C30002010BD022010BD5E
:100BC00070B590F83C20012A2CD0012480F83C40DC
:100BD000022280F83D2003685A689D6822F0700662
:100BE0000A6832435A60104B02689A420ED00F4B8B
:100BF0009A420BD0B2F1804F08D00D4B9A4205D0EB
:100C00000C4B9A4202D00C4B9A4204D1496825F011
:100C100080031943916080F83D40002180F83C102A
:100C2000084670BD022070BD002C01400034014018
:100C30000004004000080040000C004010B5040013
:100C400003D094F83D0010B107E0012010BD002052
:100C500084F83C00204600F01FF8022084F83D0094
:100C6000211D206800F0FCFB012084F8460084F878
:100C70003E0084F83F0084F8400084F8410084F886
:100C8000420084F8430084F8440084F8450084F866
:100C90003D00002010BD000008B5006817498842DB
:100CA0002AD11748816941F400618161806900227D
:100CB00000F40060009011461820FFF7B3FC1820E4
:100CC000FFF7A2FC002211461920FFF7ABFC192008
:100CD000FFF79AFC002211461A20FFF7A3FC1A2006
:100CE000FFF792FC002211461B20FFF79BFCBDE89A
:100CF00008401B20FFF788BC08BD0000002C014005
:100D00000010024070B5044690F83C00012817D04E
:100D1000012584F83C50022084F83D002068826858
:100D200022F0770222F47F4282600868502830D097
:100D30000DDC20284DD005DC98B310283BD148E0CD
:100D4000022070BD302844D0402834D139E06028DA
:100D500028D0702806D0B0F5805F2CD0B0F5005FA9
:100D600029D10AE0CB68D1E90121206800F0CBFB52
:100D70002068816841F0770109E0CB68D1E9012161
:100D8000206800F0C0FB2068816841F480418160E8
:100D900011E0CA684968206800F08AFC5021206888
:100DA00007E016E0CA684968206800F092FC6021FC
:100DB000206800F0B2FB84F83D50002084F83C002D
:100DC00070BDCA684968206800F072FC4021206844
:100DD000EFE7226801461046EBE7704770B504461E
:100DE000006801694FF00005C943890715D4C1683F
:100DF000C943890711D4E91E0161012020772068C9
:100E000080698007204602D0FFF7E7FF04E000F08A
:100E1000BFF8204600F04EF9257720680169C943E4
:100E2000490717D4C168C943490713D46FF00401B7
:100E30000161022020772068806910F4407F2046FD
:100E400002D0FFF7CAFF04E000F0A2F8204600F04D
:100E500031F9257720680169C943090716D4C168AB
:100E6000C943090712D46FF00801016104202077FB
:100E70002068C0698007204602D0FFF7AEFF04E07B
:100E800000F086F8204600F015F925772068016902
:100E9000C943C90617D4C168C943C90613D46FF042
:100EA00010010161082020772068C06910F4407F9C
:100EB000204602D0FFF791FF04E000F069F82046D9
:100EC00000F0F8F8257720680169C943C90708D1FF
:100ED000C168C943C90704D1891E0161204600F0D9
:100EE000C7F920680169C943090609D4C168C94323
:100EF000090605D46FF0800101612046FFF734FE3A
:100F000020680169C943490609D4C168C943490633
:100F100005D46FF040010161204600F0AAF9206875
:100F20000169C94389060BD4C168C943890607D43E
:100F30006FF0200101612046BDE87040FFF715BE4B
:100F400070BD000000B585B00021009101910291B3
:100F5000039100680B49884212D10B48816941F026
:100F6000040181618069694600F0040004904FF437
:100F7000007000900220019003900448FFF7E4F90C
:100F800005B000BD002C01400010024000080140E7
:100F9000704770B5044690F83C000D4601280AD011
:100FA000012084F83C0042B1042A18D0082A2AD033
:100FB0000C2A4DD139E0022070BD206800F0B6FA4D
:100FC0002068816941F0080181612068816921F010
:100FD00004018161206881692A69114311E0206858
:100FE00000F0D4FA2068816941F4006181612068D1
:100FF000816921F480618161206881692A6941EAFF
:101000000221816124E0206800F0F6FA2068C169BD
:1010100041F00801C1612068C16921F00401C1618A
:101020002068C1692A69114311E0206800F018FBAB
:101030002068C16941F40061C1612068C16921F47F
:101040008061C1612068C1692A6941EA0221C161E8
:10105000002084F83C0070BD10B5040003D094F863
:101060003D0010B107E0012010BD002084F83C00D5
:10107000204600F01EF8022084F83D00211D206863
:1010800000F0EEF9012084F8460084F83E0084F870
:101090003F0084F8400084F8410084F8420084F85E
:1010A000430084F8440084F8450084F83D000020A3
:1010B00010BD704710B5084900680968884209D119
:1010C00000224FF480710548FFF73AFA044801689E
:1010D000491C016010BD0000140000200008014000
:1010E0000000002010B50446022249B1042912D0A4
:1010F00008291CD094F84100012823D0012010BDFC
:1011000094F83E000128F9D184F83E202068C26896
:1011100042F0020209E094F83F000128EED184F881
:101120003F202068C26842F00402C2600EE094F8DA
:1011300040000128E2D184F840202068C26842F0D3
:101140000802F2E784F841200C292AD00122206805
:1011500000F0CCF915492068154A884201D0904228
:1011600003D1436C43F400434364206888420DD0AC
:1011700090420BD0B0F1804F08D00E49884205D084
:101180000D49884202D00D49884204D1816801F09E
:101190000701062903D0016841F001010160002028
:1011A00010BD2068C26842F01002BEE7002C01406A
:1011B000003401400004004000080040000C0040E2
:1011C00030B5044600680D0006D0042D08D0082D67
:1011D00038D00C2D08D139E0C16821F0020102E0BD
:1011E000C16821F00401C16000222946206800F096
:1011F0007DF91D4B41F2111120688A10984202D0EE
:101200001A4B984209D1036A0B4206D1036A134272
:1012100003D1436C23F4004343642068036A0B4208
:1012200006D1016A114203D1016821F00101016078
:1012300001207DB1042D10D0082D11D084F841007B
:10124000002030BDC16821F00801CCE7C16821F061
:101250001001C8E784F83E00F2E784F83F00EFE7AA
:1012600084F84000ECE70000002C0140003401400D
:1012700070477047FEE70000F0B585B00020009091
:101280000190029003901A48816941F02001816128
:10129000816901F020010491816941F004018161BB
:1012A0008069144E00F004004FF480740490002212
:1012B00021463046FFF744F90F4F002204213846FB
:1012C000FFF73EF900940124022569463046019457
:1012D000CDE90245FFF738F80420CDE9000469465E
:1012E0003846CDE90245FFF72FF805B0F0BD000004
:1012F00000100240000801400014014010B596B0F3
:1013000000240F9410941194129413941C2108A893
:101310001494FEF7ADFF20216846FEF7A9FF284888
:10132000264901602C21C0E9011440F2F311C0E903
:10133000031444618461FFF781FC08B1FFF701F8F1
:101340004FF480500F900FA91D48FFF7DBFC08B148
:10135000FEF7F7FF1A48FFF77FFE08B1FEF7F1FF2F
:10136000139413A916481494FFF72AFC08B1FEF74A
:10137000E8FF6020CDE908040A940B940C940D94C6
:10138000042208A90E480E94FFF703FE08B1FEF7E9
:10139000D8FF00944FF40050CDE90440029401942A
:1013A0000394694606480794FFF7E0FB08B1FEF78F
:1013B000C8FF0348FFF7C6FD16B010BD002C014062
:1013C00014000020FEE7FEE770477047FFF7C4B83F
:1013D00030B58FB028216846FEF74AFF14210AA8CD
:1013E000FEF746FF01210804CDE900100024029415
:1013F00002250491CDE907504FF4E01009906846AA
:10140000FFF70EFA08B172B6FEE70F20CDE90A0524
:101410004FF48060CDE90C4002210AA80E94FFF73A
:1014200033F9002801D072B6FEE70FB030BD704727
:101430000148FFF7D3BC0000140000200148FFF76B
:10144000CDBC0000140000200148FFF7C7BC00001D
:10145000140000200148FFF7C1BC00001400002068
:10146000F0B502681C4B1D4D1D4E1E4F1E4C4FF01B
:10147000804C984209D0A04207D0604505D0A842D0
:1014800003D0B04201D0B84204D122F0700E4A68B5
:1014900042EA0E02984209D0A04207D0604505D02A
:1014A000A84203D0B04201D0B84203D122F4407523
:1014B000CA682A434D6922F080022A4302608A6882
:1014C000C2620A688262984201D0A04201D10969D1
:1014D000016301214161F0BD002C01400004004086
:1014E00000080040000C00400034014010B501F03D
:1014F0001F030121046A99408C430462016A9A40E7
:101500001143016210BD10B5846842EA032224F43D
:101510007F440A432243826010BD826822F0700239
:101520000A4342F00701816070470000F0B5026A8B
:1015300022F001020262036A42688469124E24F0BA
:1015400073050C682C4323F002058B682B430D4D6B
:10155000A84201D0B04205D123F00807CB683B4335
:1015600023F00403A84201D0B04205D14D6922F412
:10157000407215438A692A43426084614968416325
:101580000362F0BD002C014000340140F0B5026A56
:1015900022F010020262026A436884690D6824F432
:1015A000E64444EA05248D6822F0200242EA05124E
:1015B0000F4D104EA84201D0B04206D1CF6822F0A4
:1015C000800242EA071222F04002A84201D0B04253
:1015D00007D14D6923F4406343EA85038D6943EAEB
:1015E000850343608461496881630262F0BD000045
:1015F000002C014000340140F0B5026A22F48072F0
:101600000262026A4368C46922F4007224F073051E
:101610000C68124E2C438D6842EA05220E4DA842FA
:1016200001D0B04206D1CF6822F4006242EA07221C
:1016300022F48062A84201D0B04207D14D6923F460
:10164000405343EA05138D6943EA05134360C461BF
:101650004968C1630262F0BD002C014000340140C2
:1016600030B5026A22F480520262046A4268C36999
:101670000D6823F4E64343EA05238D6824F40054FF
:1016800044EA0534084DA84202D0084DA84204D1CE
:101690004D6922F4804242EA85124260C361496882
:1016A0000164046230BD0000002C014000340140A0
:1016B00010B5036A046A24F001040462846924F00A
:1016C000F00444EA021423F00A020A43846102622D
:1016D00010BD10B5036A23F0100303628369046A26
:1016E00023F4704343EA023224F0A00343EA0111D9
:1016F0008261016210BDFEE70907090E002804DBC4
:1017000000F1E02080F80014704700F00F0000F1B5
:10171000E02080F8141D7047FEF726FFFFF758FE03
:10172000FFF7AAFDFFF7EAFD012211020448FEF7C8
:1017300007FF00F03DF80A21024800F005F8FEE737
:10174000000801405C00002070B50D1E818B04462E
:1017500001DD012200E00022FEF7F2FE2846FEF73E
:10176000EAFD40F2465191FBF0F504F120000646F7
:10177000A16EFFF725FD6D1E656204F12401206A4C
:10178000FFF76EFE3046A16EFFF7ACFCA16EFA20AB
:1017900031B1042907D00829216A07D0086470BD37
:1017A000216A486370BD216A886370BDC86370BDDB
:1017B00070B522480068224C44F8480B1F48001DB1
:1017C000006844F8440C1D480830006844F8400C98
:1017D0001A480C30006844F83C0C18481030006877
:1017E00044F8380C15481430006844F8340C134899
:1017F0001830006844F8300C1148042524F82C5C9B
:101800003D2210492030FEF701FD0E4810F83D1F23
:1018100061754178A1758178E175C178217601798A
:1018200061764179A1768179E176C1792177017A72
:101830006177407AA077256270BD000000140140F6
:101840005C000020140000200000000000000000E8
:1018500001020304060708097818000800000020A8
:10186000140000006C0100088C180008140000200F
:1018700014070000880100080000000001000000BB
:0C18800010000000000000000024F40034
:0400000508000131BD
:00000001FF
